:0E0000000C94F5220C9400000C9400000C945B
:10000E0000000C9400000C9400000C9400000C9462
:10001E0000000C9400000C9400000C9400000C9452
:10002E0000000C9428230C9400000C9400000C94F7
:10003E0000000C9400000C9400000C9400000C9432
:10004E0000000C9400000C940B240C9400000C94F3
:10005E0000000C9400000C9400000C948B230C9464
:10006E0000000C9400000C9400000C9400000C9402
:10007E0000000C9400000C9400000C940000C55578
:10008E005055DC546954F75387531853AA523D52B6
:10009E00D1516751FD5095502D50C74F624FFE4EB6
:1000AE009A4E384ED74D764D174DB94C5B4CFF4B93
:1000BE00A34B484BEE4A954A3D4AE5498F4939498B
:1000CE00E44890483C48EA4798474747F646A746D3
:1000DE0058460946BC456F452345D7448C44424497
:1000EE00F843AF4367431F43D84292424C42064205
:1000FE00C2417E413A41F740B44072403140F03F38
:10010E00B03F703F313FF23EB33E763E383EFB3D50
:10011E00BF3D833D483D0D3DD23C983C5F3C253C68
:10012E00ED3BB43B7C3B453B0E3BD73AA13A6B3A99
:10013E00363A013ACC39983964393039FD38CA38F3
:10014E009838663834380338D237A137713741378B
:10015E001137E236B336843656362836FA35CD3573
:10016E00A035733546351A35EE34C33497346C34B6
:10017E0042341734ED33C3339933703347331E3360
:10018E00F632CD32A5327E3256322F320832E1317E
:10019E00BA3194316E3148312231FD30D830B3301E
:1001AE008E306A3046302230FE2FDA2FB72F942F42
:1001BE00712F4E2F2C2F092FE72EC52EA32E822EF8
:1001CE00612E3F2E1E2EFE2DDD2DBD2D9D2D7D2D46
:1001DE005D2D3D2D1E2DFE2CDF2CC02CA12C832C35
:1001EE00642C462C282C0A2CEC2BCF2BB12B942BC9
:1001FE00772B5A2B3D2B212B042BE82ACC2AB02A05
:10020E00942A782A5C2A412A262A0B2AF029D529F3
:10021E00BA299F2985296B29502936291C2903299A
:10022E00E928D028B6289D2884286B2852283928FA
:10023E0021280828F027D727BF27A7278F27782719
:10024E006027482731271A270327EB26D426BE26F8
:10025E00A72690267A2663264D26372621260B269C
:10026E00F525DF25C925B4259E25892573255E250F
:10027E00492534251F250A25F624E124CD24B8244A
:10028E00A42490247B246724532440242C24182453
:10029E000424F123DE23CA23B723A42391237E2330
:1002AE006B2358234523322320230D23FB22E922DF
:1002BE00D622C422B222A0228E227C226A22592267
:1002CE0047223522242212220122F021DF21CD21C4
:1002DE00BC21AB219A218A217921682157214721FE
:1002EE003621262115210521F520E520D520C52012
:1002FE00B520A52095208520752066205620472004
:10030E003720282018200920FA1FEB1FDB1FCC1FD7
:10031E00BD1FAF1FA01F911F821F731F651F561F8A
:10032E00481F391F2B1F1C1F0E1F001FF21EE31E1E
:10033E00D51EC71EB91EAB1E9D1E901E821E741E9C
:10034E00661E591E4B1E3E1E301E231E151E081EF7
:10035E00FB1DEE1DE01DD31DC61DB91DAC1D9F1D41
:10036E00921D861D791D6C1D5F1D531D461D391D69
:10037E002D1D201D141D081DFB1CEF1CE31CD71C7E
:10038E00CA1CBE1CB21CA61C9A1C8E1C821C761C7F
:10039E006B1C5F1C531C471C3C1C301C241C191C62
:1003AE000D1C021CF61BEB1BE01BD41BC91BBE1B3A
:1003BE00B31BA71B9C1B911B861B7B1B701B651BFA
:1003CE005A1B501B451B3A1B2F1B241B1A1B0F1BA2
:1003DE00041BFA1AEF1AE51ADA1AD01AC61ABB1A41
:1003EE00B11AA61A9C1A921A881A7E1A731A691AC8
:1003FE005F1A551A4B1A411A371A2D1A241A1A1A3D
:10040E00101A061AFC19F319E919DF19D619CC19A5
:10041E00C219B919AF19A6199C1993198A198019FD
:10042E0077196E1964195B19521949193F19361942
:10043E002D1924191B19121909190019F718EE187C
:10044E00E518DC18D418CB18C218B918B018A818AB
:10045E009F1896188E1885187D1874186C186318C6
:10046E005B1852184A1841183918311828182018D4
:10047E0018180F180718FF17F717EF17E617DE17DC
:10048E00D617CE17C617BE17B617AE17A6179E17D6
:10049E0096178F1787177F1777176F1767176017BE
:1004AE005817501749174117391732172A1722179D
:1004BE001B1713170C170417FD16F516EE16E71675
:1004CE00DF16D816D116C916C216BB16B316AC1641
:1004DE00A5169E1696168F16881681167A16731600
:1004EE006C1665165E1657165016491642163B16B2
:1004FE0034162D1626161F16181611160B16041660
:10050E00FD15F615F015E915E215DB15D515CE1509
:10051E00C815C115BA15B415AD15A715A0159A15A0
:10052E0093158D1586158015791573156C15661531
:10053E006015591553154D15461540153A153415B8
:10054E002D15271521151B1515150E150815021538
:10055E00FC14F614F014EA14E414DE14D814D214B5
:10056E00CC14C614C014BA14B414AE14A814A21425
:10057E009C14961491148B1485147F14791474148E
:10058E006E14681462145D14571451144C144614EE
:10059E0040143B1435142F142A1424141F14191448
:1005AE0014140E1408140314FD13F813F313ED139F
:1005BE00E813E213DD13D713D213CD13C713C213EF
:1005CE00BD13B713B213AD13A713A2139D13981334
:1005DE0092138D13881383137E13781373136E1374
:1005EE00691364135F135A1355134F134A134513AC
:1005FE0040133B13361331132C13271322131D13E1
:10060E00181313130E130A1305130013FB12F6120D
:10061E00F112EC12E712E312DE12D912D412CF123B
:10062E00CB12C612C112BC12B812B312AE12A9125C
:10063E00A512A0129B12971292128D128912841279
:10064E0080127B12761272126D126912641260128F
:10065E005B12571252124D124912451240123C12A1
:10066E00371233122E122A12251221121D121812AF
:10067E0014120F120B1207120212FE11FA11F511BB
:10068E00F111ED11E911E411E011DC11D711D311C3
:10069E00CF11CB11C711C211BE11BA11B611B211C1
:1006AE00AD11A911A511A1119D11991195119111BC
:1006BE008C118811841180117C11781174117011B4
:1006CE006C116811641160115C11581154115011A4
:1006DE004C114811441140113C1138113411311193
:1006EE002D112911251121111D111911151112117B
:1006FE000E110A1106110211FF10FB10F710F31064
:10070E00EF10EC10E810E410E010DD10D910D51049
:10071E00D110CE10CA10C610C310BF10BB10B81027
:10072E00B410B010AD10A910A510A2109E109B1001
:10073E009710931090108C108910851082107E10D7
:10074E007A107710731070106C10691065106210AB
:10075E005E105B105710541050104D10491046107B
:10076E0043103F103C103810351031102E102B1046
:10077E002710241021101D101A101610131010100F
:10078E000C10091006100210FF0FFC0FF90FF50FD9
:10079E00F20FEF0FEB0FE80FE50FE20FDE0FDB0F9F
:1007AE00D80FD50FD10FCE0FCB0FC80FC50FC10F5E
:1007BE00BE0FBB0FB80FB50FB10FAE0FAB0FA80F1B
:1007CE00A50FA20F9F0F9B0F980F950F920F8F0FD4
:1007DE008C0F890F860F830F800F7C0F790F760F8A
:1007EE00730F700F6D0F6A0F670F640F610F5E0F3F
:1007FE005B0F580F550F520F4F0F4C0F490F460FEF
:10080E00430F400F3D0F3A0F370F340F310F2E0F9E
:10081E002C0F290F260F230F200F1D0F1A0F170F46
:10082E00140F110F0F0F0C0F090F060F030F000FF0
:10083E00FD0EFB0EF80EF50EF20EEF0EEC0EEA0E9E
:10084E00E70EE40EE10EDE0EDC0ED90ED60ED30E42
:10085E00D00ECE0ECB0EC80EC50EC30EC00EBD0EE4
:10086E00BA0EB80EB50EB20EB00EAD0EAA0EA70E83
:10087E00A50EA20E9F0E9D0E9A0E970E950E920E1F
:10088E008F0E8D0E8A0E870E850E820E7F0E7D0EBA
:10089E007A0E780E750E720E700E6D0E6B0E680E51
:1008AE00650E630E600E5E0E5B0E580E560E530EE8
:1008BE00510E4E0E4C0E490E470E440E420E3F0E7A
:1008CE003D0E3A0E370E350E320E300E2D0E2B0E0D
:1008DE00280E260E240E210E1F0E1C0E1A0E170E9B
:1008EE00150E120E100E0D0E0B0E080E060E040E29
:1008FE00010EFF0DFC0DFA0DF70DF50DF30DF00DBC
:10090E00EE0DEB0DE90DE70DE40DE20DE00DDD0D45
:10091E00DB0DD80DD60DD40DD10DCF0DCD0DCA0DCD
:10092E00C80DC60DC30DC10DBF0DBC0DBA0DB80D52
:10093E00B60DB30DB10DAF0DAC0DAA0DA80DA50DD5
:10094E00A30DA10D9F0D9C0D9A0D980D960D930D57
:10095E00910D8F0D8D0D8A0D880D860D840D810DD7
:10096E007F0D7D0D7B0D790D760D740D720D700D55
:10097E006E0D6B0D690D670D650D630D600D5E0DD2
:10098E005C0D5A0D580D560D530D510D4F0D4D0D4D
:10099E004B0D490D470D440D420D400D3E0D3C0DC6
:1009AE003A0D380D360D330D310D2F0D2D0D2B0D3E
:1009BE00290D270D250D230D210D1F0D1D0D1A0DB2
:1009CE00180D160D140D120D100D0E0D0C0D0A0D29
:1009DE00080D060D040D020D000DFE0CFC0CFA0C9C
:1009EE00F80CF60CF40CF20CF00CEE0CEC0CEA0C11
:1009FE00E80CE60CE40CE20CE00CDE0CDC0CDA0C81
:100A0E00D80CD60CD40CD20CD00CCE0CCC0CCA0CF0
:100A1E00C80CC60CC40CC20CC00CBE0CBC0CBB0C5F
:100A2E00B90CB70CB50CB30CB10CAF0CAD0CAB0CC8
:100A3E00A90CA70CA60CA40CA20CA00C9E0C9C0C32
:100A4E009A0C980C960C950C930C910C8F0C8D0C9B
:100A5E008B0C890C870C860C840C820C800C7E0C03
:100A6E007C0C7B0C790C770C750C730C710C700C68
:100A7E006E0C6C0C6A0C680C660C650C630C610CCD
:100A8E005F0C5D0C5C0C5A0C580C560C550C530C30
:100A9E00510C4F0C4D0C4C0C4A0C480C460C450C92
:100AAE00430C410C3F0C3E0C3C0C3A0C380C370CF2
:100ABE00350C330C310C300C2E0C2C0C2A0C290C52
:100ACE00270C250C230C220C200C1E0C1D0C1B0CB1
:100ADE00190C180C160C140C120C110C0F0C0D0C0E
:100AEE000C0C0A0C080C070C050C030C020C000C69
:100AFE00FE0BFD0BFB0BF90BF80BF60BF40BF30BCC
:100B0E00F10BEF0BEE0BEC0BEA0BE90BE70BE60B25
:100B1E00E40BE20BE10BDF0BDD0BDC0BDA0BD90B7D
:100B2E00D70BD50BD40BD20BD00BCF0BCD0BCC0BD5
:100B3E00CA0BC80BC70BC50BC40BC20BC00BBF0B2C
:100B4E00BD0BBC0BBA0BB90BB70BB50BB40BB20B81
:100B5E00B10BAF0BAE0BAC0BAB0BA90BA70BA60BD4
:100B6E00A40BA30BA10BA00B9E0B9D0B9B0B990B28
:100B7E00980B960B950B930B920B900B8F0B8D0B7B
:100B8E008C0B8A0B890B870B860B840B830B810BCB
:100B9E00800B7E0B7D0B7B0B7A0B780B770B750B1B
:100BAE00740B720B710B6F0B6E0B6C0B6B0B690B6B
:100BBE00680B660B650B640B620B610B5F0B5E0BB8
:100BCE005C0B5B0B590B580B560B550B530B520B07
:100BDE00510B4F0B4E0B4C0B4B0B490B480B470B52
:100BEE00450B440B420B410B3F0B3E0B3D0B3B0B9E
:100BFE003A0B380B370B360B340B330B310B300BE8
:100C0E002F0B2D0B2C0B2A0B290B280B260B250B30
:100C1E00230B220B210B1F0B1E0B1C0B1B0B1A0B7A
:100C2E00180B170B160B140B130B110B100B0F0BC2
:100C3E000D0B0C0B0B0B090B080B070B050B040B09
:100C4E00030B010B000BFF0AFD0AFC0AFB0AF90A53
:100C5E00F80AF70AF50AF40AF30AF10AF00AEF0A9B
:100C6E00ED0AEC0AEB0AE90AE80AE70AE50AE40AE1
:100C7E00E30AE10AE00ADF0ADE0ADC0ADB0ADA0A24
:100C8E00D80AD70AD60AD40AD30AD20AD10ACF0A68
:100C9E00CE0ACD0ACB0ACA0AC90AC80AC60AC50AAA
:100CAE00C40AC30AC10AC00ABF0ABD0ABC0ABB0AEB
:100CBE00BA0AB80AB70AB60AB50AB30AB20AB10A2C
:100CCE00B00AAE0AAD0AAC0AAB0AA90AA80AA70A6C
:100CDE00A60AA50AA30AA20AA10AA00A9E0A9D0AAA
:100CEE009C0A9B0A990A980A970A960A950A930AE9
:100CFE00920A910A900A8F0A8D0A8C0A8B0A8A0A26
:100D0E00880A870A860A850A840A830A810A800A63
:100D1E007F0A7E0A7D0A7B0A7A0A790A780A770A9E
:100D2E00750A740A730A720A710A700A6E0A6D0ADB
:100D3E006C0A6B0A6A0A690A670A660A650A640A15
:100D4E00630A620A600A5F0A5E0A5D0A5C0A5B0A4F
:100D5E005A0A580A570A560A550A540A530A520A88
:100D6E00500A4F0A4E0A4D0A4C0A4B0A4A0A480AC2
:100D7E00470A460A450A440A430A420A410A3F0AFA
:100D8E003E0A3D0A3C0A3B0A3A0A390A380A370A31
:100D9E00350A340A330A320A310A300A2F0A2E0A69
:100DAE002D0A2B0A2A0A290A280A270A260A250AA0
:100DBE00240A230A220A210A1F0A1E0A1D0A1C0AD5
:100DCE001B0A1A0A190A180A170A160A150A140A09
:100DDE00130A120A100A0F0A0E0A0D0A0C0A0B0A3F
:100DEE000A0A090A080A070A060A050A040A030A71
:100DFE00020A010A000AFE09FD09FC09FB09FA09AB
:100E0E00F909F809F709F609F509F409F309F209E0
:100E1E00F109F009EF09EE09ED09EC09EB09EA0910
:100E2E00E909E809E709E609E509E409E309E20940
:100E3E00E109E009DF09DE09DC09DB09DA09D90974
:100E4E00D809D709D609D509D409D309D209D109A8
:100E5E00D009CF09CE09CD09CC09CB09CA09C909D8
:100E6E00C809C709C609C609C509C409C309C20903
:100E7E00C109C009BF09BE09BD09BC09BB09BA0930
:100E8E00B909B809B709B609B509B409B309B20960
:100E9E00B109B009AF09AE09AD09AC09AB09AA0990
:100EAE00A909A809A709A609A509A509A409A309BD
:100EBE00A209A109A0099F099E099D099C099B09E8
:100ECE009A09990998099709960995099409940917
:100EDE0093099209910990098F098E098D098C0940
:100EEE008B098A098909880987098709860985096D
:100EFE00840983098209810980097F097E097D0998
:100F0E007C097C097B097A097909780977097609C0
:100F1E0075097409730972097209710970096F09EB
:100F2E006E096D096C096B096A096A096909680914
:100F3E00670966096509640963096209620961093D
:100F4E0060095F095E095D095C095B095A095A0966
:100F5E00590958095709560955095409530953098E
:100F6E005209510950094F094E094D094D094C09B5
:100F7E004B094A09490948094709470946094509DC
:100F8E004409430942094109410940093F093E0903
:100F9E003D093C093B093B093A093909380937092A
:100FAE003609360935093409330932093109300950
:100FBE0030092F092E092D092C092B092B092A0975
:100FCE00290928092709270926092509240923099A
:100FDE0022092209210920091F091E091D091D09BF
:100FEE001C091B091A0919091909180917091609E3
:100FFE001509150914091309120911091009100907
:10100E000F090E090D090C090C090B090A0909092A
:10101E00080908090709060905090409040903094D
:10102E000209010901090009FF08FE08FD08FD0873
:10103E00FC08FB08FA08F908F908F808F708F6089A
:10104E00F608F508F408F308F208F208F108F008BB
:10105E00EF08EF08EE08ED08EC08EB08EB08EA08DD
:10106E00E908E808E808E708E608E508E508E408FE
:10107E00E308E208E208E108E008DF08DE08DE081F
:10108E00DD08DC08DB08DB08DA08D908D808D80840
:10109E00D708D608D508D508D408D308D208D20860
:1010AE00D108D008CF08CF08CE08CD08CC08CC0880
:1010BE00CB08CA08CA08C908C808C708C708C6089E
:1010CE00C508C408C408C308C208C108C108C008BE
:1010DE00BF08BF08BE08BD08BC08BC08BB08BA08DC
:1010EE00B908B908B808B708B708B608B508B408FB
:1010FE00B408B308B208B208B108B008AF08AF0818
:10110E00AE08AD08AD08AC08AB08AA08AA08A90835
:10111E00A808A808A708A608A508A508A408A30853
:10112E00A308A208A108A108A0089F089E089E086F
:10113E009D089C089C089B089A089A08990898088C
:10114E0097089708960895089508940893089308A9
:10115E0092089108910890088F088E088E088D08C5
:10116E008C088C088B088A088A08890888088808E1
:10117E0087088608860885088408840883088208FC
:10118E0082088108800880087F087E087E087D0816
:10119E007C087C087B087A087A0879087808780831
:1011AE00770876087608750874087408730872084C
:1011BE0072087108700870086F086E086E086D0866
:1011CE006C086C086B086A086A0869086808680881
:1011DE00670866086608650864086408630863089B
:1011EE0062086108610860085F085F085E085D08B4
:1011FE005D085C085B085B085A085A0859085808CD
:10120E0058085708560856085508540854085308E5
:10121E00530852085108510850084F084F084E08FD
:10122E004E084D084C084C084B084A084A08490815
:10123E00490848084708470846084508450844082D
:10124E0044084308420842084108400840083F0845
:10125E003F083E083D083D083C083C083B083A085C
:10126E003A08390838083808370837083608350874
:10127E00350834083408330832083208310831088A
:10128E0030082F082F082E082E082D082C082C08A1
:10129E002B082B082A0829082908280828082708B7
:1012AE0026082608250825082408230823082208CE
:1012BE0022082108200820081F081F081E081E08E3
:1012CE001D081C081C081B081B081A0819081908F9
:1012DE00180818081708170816081508150814080E
:1012EE001408130812081208110811081008100823
:1012FE000F080E080E080D080D080C080C080B0838
:10130E000A080A080908090808080808070806084C
:10131E000608050805080408040803080208020860
:10132E000108010800080008FF07FE07FE07FD0779
:10133E00FD07FC07FC07FB07FB07FA07F907F90790
:10134E00F807F807F707F707F607F607F507F407A4
:10135E00F407F307F307F207F207F107F107F007B7
:10136E00EF07EF07EE07EE07ED07ED07EC07EC07CB
:10137E00EB07EB07EA07E907E907E807E807E707DE
:10138E00E707E607E607E507E507E407E307E307F0
:10139E00E207E207E107E107E007E007DF07DF0703
:1013AE00DE07DE07DD07DC07DC07DB07DB07DA0716
:1013BE00DA07D907D907D807D807D707D707D60727
:1013CE00D607D507D507D407D307D307D207D20739
:1013DE00D107D107D007D007CF07CF07CE07CE074B
:1013EE00CD07CD07CC07CC07CB07CB07CA07CA075B
:1013FE00C907C807C807C707C707C607C607C5076F
:10140E00C507C407C407C307C307C207C207C1077E
:10141E00C107C007C007BF07BF07BE07BE07BD078E
:10142E00BD07BC07BC07BB07BB07BA07BA07B9079E
:10143E00B907B807B807B707B707B607B607B507AE
:10144E00B507B407B407B307B307B207B207B107BE
:10145E00B107B007B007AF07AF07AE07AE07AD07CE
:10146E00AD07AC07AC07AB07AB07AA07AA07A907DE
:10147E00A907A807A807A707A707A607A607A507EE
:10148E00A507A407A407A307A307A207A207A107FE
:10149E00A107A007A0079F079F079E079E079D070E
:1014AE009D079C079C079B079B079A079A0799071E
:1014BE00990799079807980797079707960796072A
:1014CE00950795079407940793079307920792073A
:1014DE0091079107900790078F078F078E078E074A
:1014EE008E078D078D078C078C078B078B078A0756
:1014FE008A07890789078807880787078707860766
:10150E008607860785078507840784078307830771
:10151E0082078207810781078007800780077F0780
:10152E007F077E077E077D077D077C077C077B078D
:10153E007B077A077A077A0779077907780778079A
:10154E0077077707760776077507750775077407A8
:10155E0074077307730772077207710771077007B5
:10156E00700770076F076F076E076E076D076D07C1
:10157E006C076C076B076B076B076A076A076907CF
:10158E0069076807680767076707670766076607DB
:10159E0065076507640764076307630763076207E8
:1015AE006207610761076007600760075F075F07F3
:1015BE005E075E075D075D075C075C075C075B0700
:1015CE005B075A075A07590759075907580758070B
:1015DE005707570756075607560755075507540717
:1015EE005407530753075307520752075107510722
:1015FE005007500750074F074F074E074E074D072E
:10160E004D074D074C074C074B074B074A074A0738
:10161E004A07490749074807480747074707470743
:10162E00460746074507450745074407440743074E
:10163E004307420742074207410741074007400759
:10164E0040073F073F073E073E073D073D073D0763
:10165E003C073C073B073B073B073A073A0739076E
:10166E003907380738073807370737073607360779
:10167E003607350735073407340734073307330782
:10168E00320732073207310731073007300730078C
:10169E002F072F072E072E072E072D072D072C0796
:1016AE002C072B072B072B072A072A0729072907A1
:1016BE0029072807280727072707270726072607AA
:1016CE0026072507250724072407240723072307B2
:1016DE0022072207220721072107200720072007BC
:1016EE001F071F071E071E071E071D071D071C07C6
:1016FE001C071C071B071B071B071A071A071907CE
:10170E0019071907180718071707170717071607D6
:10171E0016071507150715071407140714071307DF
:10172E0013071207120712071107110710071007E8
:10173E0010070F070F070F070E070E070D070D07F0
:10174E000D070C070C070C070B070B070A070A07F8
:10175E000A07090709070907080708070707070700
:10176E000707060706070507050705070407040709
:10177E000407030703070307020702070107010710
:10178E000107000700070007FF06FF06FE06FE061C
:10179E00FE06FD06FD06FD06FC06FC06FB06FB0628
:1017AE00FB06FA06FA06FA06F906F906F906F8062F
:1017BE00F806F706F706F706F606F606F606F50637
:1017CE00F506F506F406F406F306F306F306F2063E
:1017DE00F206F206F106F106F106F006F006EF0645
:1017EE00EF06EF06EE06EE06EE06ED06ED06ED064C
:1017FE00EC06EC06EC06EB06EB06EA06EA06EA0653
:10180E00E906E906E906E806E806E806E706E70659
:10181E00E706E606E606E506E506E506E406E40660
:10182E00E406E306E306E306E206E206E206E10666
:10183E00E106E106E006E006E006DF06DF06DE066C
:10184E00DE06DE06DD06DD06DD06DC06DC06DC0673
:10185E00DB06DB06DB06DA06DA06DA06D906D90679
:10186E00D906D806D806D806D706D706D706D6067E
:10187E00D606D506D506D506D406D406D406D30686
:10188E00D306D306D206D206D206D106D106D1068B
:10189E00D006D006D006CF06CF06CF06CE06CE0691
:1018AE00CE06CD06CD06CD06CC06CC06CC06CB0696
:1018BE00CB06CB06CA06CA06CA06C906C906C9069B
:1018CE00C806C806C806C706C706C706C606C606A1
:1018DE00C606C506C506C506C406C406C406C306A6
:1018EE00C306C306C206C206C206C106C106C106AB
:1018FE00C006C006C006BF06BF06BF06BE06BE06B1
:10190E00BE06BD06BD06BD06BC06BC06BC06BB06B5
:10191E00BB06BB06BA06BA06BA06BA06B906B906B9
:10192E00B906B806B806B806B706B706B706B606BD
:10193E00B606B606B506B506B506B406B406B406C2
:10194E00B306B306B306B206B206B206B106B106C8
:10195E00B106B106B006B006B006AF06AF06AF06CA
:10196E00AE06AE06AE06AD06AD06AD06AC06AC06D0
:10197E00AC06AB06AB06AB06AB06AA06AA06AA06D3
:10198E00A906A906A906A806A806A806A706A706D8
:10199E00A706A606A606A606A606A506A506A506DB
:1019AE00A406A406A406A306A306A306A206A206E0
:1019BE00A206A106A106A106A106A006A006A006E3
:1019CE009F069F069F069E069E069E069D069D06E8
:1019DE009D069D069C069C069C069B069B069B06EA
:1019EE009A069A069A069A069906990699069806EE
:1019FE0098069806970697069706960696069606F2
:101A0E0096069506950695069406940694069306F4
:101A1E0093069306930692069206920691069106F7
:101A2E00910690069006900690068F068F068F06FA
:101A3E008E068E068E068E068D068D068D068C06FD
:101A4E008C068C068B068B068B068B068A068A0600
:101A5E008A06890689068906880688068806880603
:101A6E008706870687068606860686068606850606
:101A7E008506850684068406840684068306830608
:101A8E00830682068206820682068106810681060A
:101A9E008006800680067F067F067F067F067E060E
:101AAE007E067E067D067D067D067D067C067C0610
:101ABE007C067B067B067B067B067A067A067A0612
:101ACE007906790679067906780678067806780614
:101ADE007706770677067606760676067606750616
:101AEE007506750674067406740674067306730618
:101AFE00730672067206720672067106710671061A
:101B0E0070067006700670066F066F066F066F061B
:101B1E006E066E066E066D066D066D066D066C061D
:101B2E006C066C066C066B066B066B066A066A061E
:101B3E006A066A0669066906690668066806680620
:101B4E006806670667066706670666066606660621
:101B5E006506650665066506640664066406640623
:101B6E006306630663066306620662066206610624
:101B7E0061066106610660066006600660065F0625
:101B8E005F065F065E065E065E065E065D065D0627
:101B9E005D065D065C065C065C065C065B065B0627
:101BAE005B065A065A065A065A0659065906590629
:101BBE005906580658065806580657065706570629
:101BCE00570656065606560655065506550655062A
:101BDE00540654065406540653065306530653062B
:101BEE00520652065206520651065106510651062B
:101BFE005006500650064F064F064F064F064E062D
:101C0E004E064E064E064D064D064D064D064C062C
:101C1E004C064C064C064B064B064B064B064A062C
:101C2E004A064A064A06490649064906490648062C
:101C3E00480648064806470647064706470646062C
:101C4E00460646064506450645064506440644062E
:101C5E00440644064306430643064306420642062E
:101C6E00420642064106410641064106400640062E
:101C7E00400640063F063F063F063F063E063E062E
:101C8E003E063E063D063D063D063D063C063C062E
:101C9E003C063C063B063B063B063B063B063A062D
:101CAE003A063A063A06390639063906390638062C
:101CBE00380638063806370637063706370636062C
:101CCE00360636063606350635063506350634062C
:101CDE00340634063406330633063306330632062C
:101CEE00320632063206310631063106310631062B
:101CFE0030063006300630062F062F062F062F062A
:101D0E002E062E062E062E062D062D062D062D0629
:101D1E002C062C062C062C062B062B062B062B0629
:101D2E002B062A062A062A062A0629062906290627
:101D3E002906280628062806280627062706270627
:101D4E002706270626062606260626062506250625
:101D5E002506250624062406240624062306230625
:101D6E002306230623062206220622062206210623
:101D7E002106210621062006200620062006200622
:101D8E001F061F061F061F061E061E061E061E0621
:101D9E001D061D061D061D061D061C061C061C0620
:101DAE001C061B061B061B061B061A061A061A061F
:101DBE001A061A061906190619061906180618061D
:101DCE00180618061706170617061706170616061C
:101DDE00160616061606150615061506150615061A
:101DEE001406140614061406130613061306130619
:101DFE001306120612061206120611061106110617
:101E0E001106110610061006100610060F060F0614
:101E1E000F060F060E060E060E060E060E060D0613
:101E2E000D060D060D060D060C060C060C060C0610
:101E3E000B060B060B060B060B060A060A060A060F
:101E4E000A0609060906090609060906080608060D
:101E5E00080608060706070607060706070606060B
:101E6E000606060606060506050605060506050609
:101E7E000406040604060406040603060306030607
:101E8E000306020602060206020602060106010605
:101E9E000106010601060006000600060006FF0503
:101EAE00FF05FF05FF05FF05FE05FE05FE05FE0508
:101EBE00FE05FD05FD05FD05FD05FC05FC05FC0506
:101ECE00FC05FC05FB05FB05FB05FB05FB05FA0503
:101EDE00FA05FA05FA05FA05F905F905F905F90500
:101EEE00F805F805F805F805F805F705F705F705FF
:101EFE00F705F705F605F605F605F605F605F505FB
:101F0E00F505F505F505F405F405F405F405F405F8
:101F1E00F305F305F305F305F305F205F205F205F6
:101F2E00F205F205F105F105F105F105F105F005F2
:101F3E00F005F005F005F005EF05EF05EF05EF05EF
:101F4E00EE05EE05EE05EE05EE05ED05ED05ED05EE
:101F5E00ED05ED05EC05EC05EC05EC05EC05EB05EA
:101F6E00EB05EB05EB05EB05EA05EA05EA05EA05E7
:101F7E00EA05E905E905E905E905E905E805E805E4
:101F8E00E805E805E805E705E705E705E705E705E0
:101F9E00E605E605E605E605E605E505E505E505DE
:101FAE00E505E505E405E405E405E405E405E305DA
:101FBE00E305E305E305E305E205E205E205E205D7
:101FCE00E205E105E105E105E105E105E005E005D4
:101FDE00E005E005E005DF05DF05DF05DF05DF05D0
:101FEE00DE05DE05DE05DE05DE05DD05DD05DD05CE
:101FFE00DD05DD05DC05DC05DC05DC05DC05DB05CA
:10200E00DB05DB05DB05DB05DB05DA05DA05DA05C5
:10201E00DA05DA05D905D905D905D905D905D805C1
:10202E00D805D805D805D805D705D705D705D705BE
:10203E00D705D605D605D605D605D605D505D505BB
:10204E00D505D505D505D505D405D405D405D405B6
:10205E00D405D305D305D305D305D305D205D205B3
:10206E00D205D205D205D105D105D105D105D105AF
:10207E00D105D005D005D005D005D005CF05CF05AB
:10208E00CF05CF05CF05CE05CE05CE05CE05CE05A7
:10209E00CE05CD05CD05CD05CD05CD05CC05CC05A3
:1020AE00CC05CC05CC05CB05CB05CB05CB05CB059F
:1020BE00CB05CA05CA05CA05CA05CA05C905C9059B
:1020CE00C905C905C905C805C805C805C805C80597
:1020DE00C805C705C705C705C705C705C605C60593
:1020EE00C605C605C605C605C505C505C505C5058E
:1020FE00C505C405C405C405C405C405C305C3058B
:10210E00C305C305C305C305C205C205C205C20585
:10211E00C205C105C105C105C105C105C105C00581
:10212E00C005C005C005C005BF05BF05BF05BF057D
:10213E00BF05BF05BE05BE05BE05BE05BE05BE0577
:10214E00BD05BD05BD05BD05BD05BC05BC05BC0574
:10215E00BC05BC05BC05BB05BB05BB05BB05BB056E
:10216E00BA05BA05BA05BA05BA05BA05B905B9056B
:10217E00B905B905B905B805B805B805B805B80566
:10218E00B805B705B705B705B705B705B705B60561
:10219E00B605B605B605B605B505B505B505B5055D
:1021AE00B505B505B405B405B405B405B405B40557
:1021BE00B305B305B305B305B305B305B205B20553
:1021CE00B205B205B205B105B105B105B105B1054E
:1021DE00B105B005B005B005B005B005B005AF0549
:1021EE00AF05AF05AF05AF05AF05AE05AE05AE0544
:1021FE00AE05AE05AD05AD05AD05AD05AD05AD053F
:10220E00AC05AC05AC05AC05AC05AC05AB05AB053A
:10221E00AB05AB05AB05AB05AA05AA05AA05AA0534
:10222E00AA05AA05A905A905A905A905A905A9052E
:10223E00A805A805A805A805A805A705A705A7052B
:10224E00A705A705A705A605A605A605A605A60525
:10225E00A605A505A505A505A505A505A505A40520
:10226E00A405A405A405A405A405A305A305A3051B
:10227E00A305A305A305A205A205A205A205A20515
:10228E00A205A105A105A105A105A105A105A00510
:10229E00A005A005A005A005A0059F059F059F050B
:1022AE009F059F059F059E059E059E059E059E0505
:1022BE009E059D059D059D059D059D059D059C0500
:1022CE009C059C059C059C059C059B059B059B05FB
:1022DE009B059B059B059B059A059A059A059A05F4
:1022EE009A059A05990599059905990599059905EE
:1022FE0098059805980598059805980597059705EA
:10230E0097059705970597059605960596059605E3
:10231E0096059605950595059505950595059505DD
:10232E0095059405940594059405940594059305D7
:10233E0093059305930593059305920592059205D2
:10234E0092059205920591059105910591059105CC
:10235E0091059105900590059005900590059005C5
:10236E008F058F058F058F058F058F058E058E05C1
:10237E008E058E058E058E058E058D058D058D05BA
:10238E008D058D058D058C058C058C058C058C05B4
:10239E008C058B058B058B058B058B058B058B05AE
:1023AE008A058A058A058A058A058A0589058905A9
:1023BE0089058905890589058905880588058805A2
:1023CE00880588058805870587058705870587059C
:1023DE008705870586058605860586058605860595
:1023EE008505850585058505850585058505840590
:1023FE00840584058405840584058305830583058A
:10240E008305830583058305820582058205820582
:10241E00820582058105810581058105810581057C
:10242E0081058005800580058005800580057F0576
:10243E007F057F057F057F057F057F057E057E0570
:10244E007E057E057E057E057E057D057D057D0569
:10245E007D057D057D057C057C057C057C057C0563
:10246E007C057C057B057B057B057B057B057B055C
:10247E007B057A057A057A057A057A057A05790556
:10248E007905790579057905790579057805780550
:10249E007805780578057805780577057705770549
:1024AE007705770577057705760576057605760542
:1024BE00760576057505750575057505750575053C
:1024CE007505740574057405740574057405740535
:1024DE00730573057305730573057305730572052F
:1024EE007205720572057205720572057105710528
:1024FE007105710571057105710570057005700521
:10250E0070057005700570056F056F056F056F0519
:10251E006F056F056F056E056E056E056E056E0512
:10252E006E056E056D056D056D056D056D056D050B
:10253E006D056C056C056C056C056C056C056C0504
:10254E006B056B056B056B056B056B056B056A05FE
:10255E006A056A056A056A056A056A0569056905F7
:10256E0069056905690569056905680568056805F0
:10257E0068056805680568056705670567056705E9
:10258E0067056705670566056605660566056605E2
:10259E0066056605650565056505650565056505DB
:1025AE0065056405640564056405640564056405D4
:1025BE0063056305630563056305630563056305CD
:1025CE0062056205620562056205620562056105C6
:1025DE0061056105610561056105610560056005BF
:1025EE00600560056005600560055F055F055F05B8
:1025FE005F055F055F055F055F055E055E055E05B0
:10260E005E055E055E055E055D055D055D055D05A8
:10261E005D055D055D055C055C055C055C055C05A1
:10262E005C055C055B055B055B055B055B055B059A
:10263E005B055B055A055A055A055A055A055A0592
:10264E005A0559055905590559055905590559058B
:10265E005905580558055805580558055805580583
:10266E00570557055705570557055705570557057C
:10267E005605560556055605560556055605550575
:10268E00550555055505550555055505550554056D
:10269E005405540554055405540554055305530566
:1026AE00530553055305530553055305520552055E
:1026BE005205520552055205520551055105510557
:1026CE00510551055105510551055005500550054F
:1026DE0050055005500550054F054F054F054F0548
:1026EE004F054F054F054F054E054E054E054E0540
:1026FE004E054E054E054E054D054D054D054D0538
:10270E004D054D054D054C054C054C054C054C0530
:10271E004C054C054C054B054B054B054B054B0528
:10272E004B054B054B054A054A054A054A054A0520
:10273E004A054A0549054905490549054905490519
:10274E004905490548054805480548054805480511
:10275E004805480547054705470547054705470509
:10276E004705470546054605460546054605460501
:10277E0046054605450545054505450545054505F9
:10278E0045054505440544054405440544054405F1
:10279E0044054305430543054305430543054305EA
:1027AE0043054205420542054205420542054205E2
:1027BE0042054105410541054105410541054105DA
:1027CE0041054005400540054005400540054005D2
:1027DE0040053F053F053F053F053F053F053F05CA
:1027EE003F053E053E053E053E053E053E053E05C2
:1027FE003E053D053D053D053D053D053D053D05BA
:10280E003D053C053C053C053C053C053C053C05B1
:10281E003C053B053B053B053B053B053B053B05A9
:10282E003B053B053A053A053A053A053A053A05A0
:10283E003A053A0539053905390539053905390598
:10284E003905390538053805380538053805380590
:10285E003805380537053705370537053705370588
:10286E003705370536053605360536053605360580
:10287E003605360535053505350535053505350578
:10288E00350535053505340534053405340534056F
:10289E003405340534053305330533053305330567
:1028AE00330533053305320532053205320532055F
:1028BE003205320532053205310531053105310556
:1028CE00310531053105310530053005300530054E
:1028DE0030053005300530052F052F052F052F0546
:1028EE002F052F052F052F052F052E052E052E053D
:1028FE002E052E052E052E052E052D052D052D0535
:10290E002D052D052D052D052D052D052C052C052B
:10291E002C052C052C052C052C052C052B052B0523
:10292E002B052B052B052B052B052B052B052A051A
:10293E002A052A052A052A052A052A052A05290512
:10294E002905290529052905290529052905290509
:10295E002805280528052805280528052805280501
:10296E0027052705270527052705270527052705F9
:10297E0027052605260526052605260526052605F0
:10298E0026052605250525052505250525052505E7
:10299E0025052505240524052405240524052405DF
:1029AE0024052405240523052305230523052305D6
:1029BE0023052305230523052205220522052205CD
:1029CE0022052205220522052105210521052105C5
:1029DE0021052105210521052105200520052005BC
:1029EE002005200520052005200520051F051F05B3
:1029FE001F051F051F051F051F051F051F051E05AA
:102A0E001E051E051E051E051E051E051E051E05A0
:102A1E001D051D051D051D051D051D051D051D0598
:102A2E001D051C051C051C051C051C051C051C058F
:102A3E001C051B051B051B051B051B051B051B0587
:102A4E001B051B051A051A051A051A051A051A057E
:102A5E001A051A051A051905190519051905190575
:102A6E00190519051905190518051805180518056C
:102A7E001805180518051805180517051705170563
:102A8E00170517051705170517051705160516055A
:102A9E001605160516051605160516051605150551
:102AAE001505150515051505150515051505150548
:102ABE001405140514051405140514051405140540
:102ACE001405140513051305130513051305130536
:102ADE00130513051305120512051205120512052D
:102AEE001205120512051205110511051105110524
:102AFE00110511051105110511051005100510051B
:102B0E001005100510051005100510050F050F0511
:102B1E000F050F050F050F050F050F050F050E0508
:102B2E000E050E050E050E050E050E050E050E05FF
:102B3E000E050D050D050D050D050D050D050D05F6
:102B4E000D050D050C050C050C050C050C050C05ED
:102B5E000C050C050C050B050B050B050B050B05E4
:102B6E000B050B050B050B050B050A050A050A05DA
:102B7E000A050A050A050A050A050A0509050905D1
:102B8E0009050905090509050905090509050805C8
:102B9E0008050805080508050805080508050805BF
:102BAE0008050705070507050705070507050705B6
:102BBE0007050705060506050605060506050605AD
:102BCE0006050605060506050505050505050505A3
:102BDE00050505050505050505050405040504059A
:102BEE000405040504050405040504050405030590
:102BFE000305030503050305030503050305030587
:102C0E00030502050205020502050205020502057D
:102C1E000205020501050105010501050105010574
:102C2E00010501050105010500050005000500056A
:102C3E0000050005000500050005FF04FF04FF0464
:102C4E00FF04FF04FF04FF04FF04FF04FF04FE045F
:102C5E00FE04FE04FE04FE04FE04FE04FE04FE0456
:102C6E00FE04FD04FD04FD04FD04FD04FD04FD044D
:102C7E00FD04FD04FC04FC04FC04FC04FC04FC0444
:102C8E00FC04FC04FC04FC04FB04FB04FB04FB043A
:102C9E00FB04FB04FB04FB04FB04FB04FA04FA0430
:102CAE00FA04FA04FA04FA04FA04FA04FA04FA0426
:102CBE00F904F904F904F904F904F904F904F9041E
:102CCE00F904F904F804F804F804F804F804F80414
:102CDE00F804F804F804F804F704F704F704F7040A
:102CEE00F704F704F704F704F704F604F604F60401
:102CFE00F604F604F604F604F604F604F604F504F7
:102D0E00F504F504F504F504F504F504F504F504ED
:102D1E00F504F404F404F404F404F404F404F404E4
:102D2E00F404F404F404F304F304F304F304F304DA
:102D3E00F304F304F304F304F304F204F204F204D0
:102D4E00F204F204F204F204F204F204F204F104C6
:102D5E00F104F104F104F104F104F104F104F104BD
:102D6E00F104F004F004F004F004F004F004F004B4
:102D7E00F004F004F004F004EF04EF04EF04EF04A9
:102D8E00EF04EF04EF04EF04EF04EF04EE04EE049F
:102D9E00EE04EE04EE04EE04EE04EE04EE04EE0495
:102DAE00ED04ED04ED04ED04ED04ED04ED04ED048D
:102DBE00ED04ED04EC04EC04EC04EC04EC04EC0483
:102DCE00EC04EC04EC04EC04EB04EB04EB04EB0479
:102DDE00EB04EB04EB04EB04EB04EB04EA04EA046F
:102DEE00EA04EA04EA04EA04EA04EA04EA04EA0465
:102DFE00EA04E904E904E904E904E904E904E9045C
:102E0E00E904E904E904E804E804E804E804E80451
:102E1E00E804E804E804E804E804E704E704E70447
:102E2E00E704E704E704E704E704E704E704E7043C
:102E3E00E604E604E604E604E604E604E604E60434
:102E4E00E604E604E504E504E504E504E504E5042A
:102E5E00E504E504E504E504E404E404E404E40420
:102E6E00E404E404E404E404E404E404E404E30415
:102E7E00E304E304E304E304E304E304E304E3040C
:102E8E00E304E204E204E204E204E204E204E20403
:102E9E00E204E204E204E204E104E104E104E104F8
:102EAE00E104E104E104E104E104E104E004E004EE
:102EBE00E004E004E004E004E004E004E004E004E4
:102ECE00E004DF04DF04DF04DF04DF04DF04DF04DB
:102EDE00DF04DF04DF04DE04DE04DE04DE04DE04D1
:102EEE00DE04DE04DE04DE04DE04DE04DD04DD04C6
:102EFE00DD04DD04DD04DD04DD04DD04DD04DD04BC
:102F0E00DC04DC04DC04DC04DC04DC04DC04DC04B3
:102F1E00DC04DC04DC04DB04DB04DB04DB04DB04A8
:102F2E00DB04DB04DB04DB04DB04DB04DA04DA049D
:102F3E00DA04DA04DA04DA04DA04DA04DA04DA0493
:102F4E00D904D904D904D904D904D904D904D9048B
:102F5E00D904D904D904D804D804D804D804D80480
:102F6E00D804D804D804D804D804D804D704D70475
:102F7E00D704D704D704D704D704D704D704D7046B
:102F8E00D704D604D604D604D604D604D604D60462
:102F9E00D604D604D604D504D504D504D504D50458
:102FAE00D504D504D504D504D504D504D404D4044D
:102FBE00D404D404D404D404D404D404D404D40443
:102FCE00D404D304D304D304D304D304D304D3043A
:102FDE00D304D304D304D304D204D204D204D2042F
:102FEE00D204D204D204D204D204D204D204D10424
:102FFE00D104D104D104D104D104D104D104D1041B
:10300E00D104D104D004D004D004D004D004D00410
:10301E00D004D004D004D004D004CF04CF04CF0405
:10302E00CF04CF04CF04CF04CF04CF04CF04CF04FA
:10303E00CE04CE04CE04CE04CE04CE04CE04CE04F2
:10304E00CE04CE04CE04CD04CD04CD04CD04CD04E7
:10305E00CD04CD04CD04CD04CD04CD04CC04CC04DC
:10306E00CC04CC04CC04CC04CC04CC04CC04CC04D2
:10307E00CC04CB04CB04CB04CB04CB04CB04CB04C9
:10308E00CB04CB04CB04CB04CA04CA04CA04CA04BE
:10309E00CA04CA04CA04CA04CA04CA04CA04C904B3
:1030AE00C904C904C904C904C904C904C904C904AA
:1030BE00C904C904C804C804C804C804C804C804A0
:1030CE00C804C804C804C804C804C704C704C70495
:1030DE00C704C704C704C704C704C704C704C7048A
:1030EE00C604C604C604C604C604C604C604C60482
:1030FE00C604C604C604C604C504C504C504C50476
:10310E00C504C504C504C504C504C504C504C4046A
:10311E00C404C404C404C404C404C404C404C40461
:10312E00C404C404C304C304C304C304C304C30457
:10313E00C304C304C304C304C304C204C204C2044C
:10314E00C204C204C204C204C204C204C204C20441
:10315E00C204C104C104C104C104C104C104C10438
:10316E00C104C104C104C104C004C004C004C0042D
:10317E00C004C004C004C004C004C004C004BF0422
:10318E00BF04BF04BF04BF04BF04BF04BF04BF0419
:10319E00BF04BF04BF04BE04BE04BE04BE04BE040E
:1031AE00BE04BE04BE04BE04BE04BE04BD04BD0403
:1031BE00BD04BD04BD04BD04BD04BD04BD04BD04F9
:1031CE00BD04BD04BC04BC04BC04BC04BC04BC04EF
:1031DE00BC04BC04BC04BC04BC04BB04BB04BB04E4
:1031EE00BB04BB04BB04BB04BB04BB04BB04BB04D9
:1031FE00BA04BA04BA04BA04BA04BA04BA04BA04D1
:10320E00BA04BA04BA04BA04B904B904B904B904C4
:10321E00B904B904B904B904B904B904B904B804B9
:10322E00B804B804B804B804B804B804B804B804B0
:10323E00B804B804B804B704B704B704B704B704A5
:10324E00B704B704B704B704B704B704B704B60499
:10325E00B604B604B604B604B604B604B604B60490
:10326E00B604B604B504B504B504B504B504B50486
:10327E00B504B504B504B504B504B504B404B4047A
:10328E00B404B404B404B404B404B404B404B40470
:10329E00B404B304B304B304B304B304B304B30467
:1032AE00B304B304B304B304B304B204B204B2045B
:1032BE00B204B204B204B204B204B204B204B20450
:1032CE00B204B104B104B104B104B104B104B10447
:1032DE00B104B104B104B104B004B004B004B0043C
:1032EE00B004B004B004B004B004B004B004B00430
:1032FE00AF04AF04AF04AF04AF04AF04AF04AF0428
:10330E00AF04AF04AF04AF04AE04AE04AE04AE041B
:10331E00AE04AE04AE04AE04AE04AE04AE04AE040F
:10332E00AD04AD04AD04AD04AD04AD04AD04AD0407
:10333E00AD04AD04AD04AC04AC04AC04AC04AC04FC
:10334E00AC04AC04AC04AC04AC04AC04AC04AB04F0
:10335E00AB04AB04AB04AB04AB04AB04AB04AB04E7
:10336E00AB04AB04AB04AA04AA04AA04AA04AA04DC
:10337E00AA04AA04AA04AA04AA04AA04AA04A904D0
:10338E00A904A904A904A904A904A904A904A904C7
:10339E00A904A904A904A804A804A804A804A804BC
:1033AE00A804A804A804A804A804A804A804A704B0
:1033BE00A704A704A704A704A704A704A704A704A7
:1033CE00A704A704A704A604A604A604A604A6049C
:1033DE00A604A604A604A604A604A604A504A50491
:1033EE00A504A504A504A504A504A504A504A50487
:1033FE00A504A504A404A404A404A404A404A4047D
:10340E00A404A404A404A404A404A404A304A30470
:10341E00A304A304A304A304A304A304A304A30466
:10342E00A304A304A204A204A204A204A204A2045C
:10343E00A204A204A204A204A204A204A104A10450
:10344E00A104A104A104A104A104A104A104A10446
:10345E00A104A104A004A004A004A004A004A0043C
:10346E00A004A004A004A004A004A0049F049F0430
:10347E009F049F049F049F049F049F049F049F0426
:10348E009F049F049F049E049E049E049E049E041B
:10349E009E049E049E049E049E049E049E049D040F
:1034AE009D049D049D049D049D049D049D049D0406
:1034BE009D049D049D049C049C049C049C049C04FB
:1034CE009C049C049C049C049C049C049C049B04EF
:1034DE009B049B049B049B049B049B049B049B04E6
:1034EE009B049B049B049A049A049A049A049A04DB
:1034FE009A049A049A049A049A049A049A049904CF
:10350E0099049904990499049904990499049904C5
:10351E0099049904990498049804980498049804BA
:10352E0098049804980498049804980498049704AE
:10353E0097049704970497049704970497049704A5
:10354E009704970497049704960496049604960499
:10355E00960496049604960496049604960496048D
:10356E009504950495049504950495049504950485
:10357E009504950495049504940494049404940479
:10358E00940494049404940494049404940494046D
:10359E009304930493049304930493049304930465
:1035AE009304930493049304930492049204920458
:1035BE00920492049204920492049204920492044D
:1035CE009204910491049104910491049104910444
:1035DE009104910491049104910490049004900438
:1035EE00900490049004900490049004900490042D
:1035FE00900490048F048F048F048F048F048F0423
:10360E008F048F048F048F048F048F048E048E0416
:10361E008E048E048E048E048E048E048E048E040C
:10362E008E048E048D048D048D048D048D048D0402
:10363E008D048D048D048D048D048D048D048C04F5
:10364E008C048C048C048C048C048C048C048C04EC
:10365E008C048C048C048B048B048B048B048B04E1
:10366E008B048B048B048B048B048B048B048A04D5
:10367E008A048A048A048A048A048A048A048A04CC
:10368E008A048A048A048A048904890489048904C0
:10369E0089048904890489048904890489048904B4
:1036AE0088048804880488048804880488048804AC
:1036BE00880488048804880488048704870487049F
:1036CE008704870487048704870487048704870494
:1036DE00870486048604860486048604860486048B
:1036EE00860486048604860486048504850485047F
:1036FE008504850485048504850485048504850474
:10370E008504850484048404840484048404840469
:10371E00840484048404840484048404830483045D
:10372E008304830483048304830483048304830453
:10373E008304830483048204820482048204820448
:10374E00820482048204820482048204820481043C
:10375E008104810481048104810481048104810433
:10376E008104810481048104800480048004800427
:10377E00800480048004800480048004800480041B
:10378E007F047F047F047F047F047F047F047F0413
:10379E007F047F047F047F047F047E047E047E0406
:1037AE007E047E047E047E047E047E047E047E04FB
:1037BE007E047D047D047D047D047D047D047D04F2
:1037CE007D047D047D047D047D047D047C047C04E5
:1037DE007C047C047C047C047C047C047C047C04DB
:1037EE007C047C047C047B047B047B047B047B04D0
:1037FE007B047B047B047B047B047B047B047A04C4
:10380E007A047A047A047A047A047A047A047A04BA
:10381E007A047A047A047A047904790479047904AE
:10382E0079047904790479047904790479047904A2
:10383E00780478047804780478047804780478049A
:10384E00780478047804780478047704770477048D
:10385E007704770477047704770477047704770482
:10386E007704770476047604760476047604760478
:10387E00760476047604760476047604750475046C
:10388E007504750475047504750475047504750462
:10389E007504750475047404740474047404740457
:1038AE00740474047404740474047404740473044B
:1038BE007304730473047304730473047304730442
:1038CE007304730473047304720472047204720436
:1038DE00720472047204720472047204720472042A
:1038EE007204710471047104710471047104710421
:1038FE007104710471047104710470047004700415
:10390E007004700470047004700470047004700409
:10391E00700470046F046F046F046F046F046F04FF
:10392E006F046F046F046F046F046F046F046E04F2
:10393E006E046E046E046E046E046E046E046E04E9
:10394E006E046E046E046D046D046D046D046D04DE
:10395E006D046D046D046D046D046D046D046D04D1
:10396E006C046C046C046C046C046C046C046C04C9
:10397E006C046C046C046C046C046B046B046B04BC
:10398E006B046B046B046B046B046B046B046B04B1
:10399E006B046A046A046A046A046A046A046A04A8
:1039AE006A046A046A046A046A046A04690469049B
:1039BE006904690469046904690469046904690491
:1039CE006904690469046804680468046804680486
:1039DE006804680468046804680468046804680479
:1039EE006704670467046704670467046704670471
:1039FE006704670467046704660466046604660465
:103A0E006604660466046604660466046604660458
:103A1E00660465046504650465046504650465044F
:103A2E006504650465046504650465046404640442
:103A3E006404640464046404640464046404640438
:103A4E00640464046404630463046304630463042D
:103A5E006304630463046304630463046304620421
:103A6E006204620462046204620462046204620418
:103A7E00620462046204620461046104610461040C
:103A8E006104610461046104610461046104610400
:103A9E0061046004600460046004600460046004F7
:103AAE00600460046004600460045F045F045F04EB
:103ABE005F045F045F045F045F045F045F045F04E0
:103ACE005F045F045E045E045E045E045E045E04D6
:103ADE005E045E045E045E045E045E045E045D04C9
:103AEE005D045D045D045D045D045D045D045D04C0
:103AFE005D045D045D045D045C045C045C045C04B4
:103B0E005C045C045C045C045C045C045C045C04A7
:103B1E005B045B045B045B045B045B045B045B049F
:103B2E005B045B045B045B045B045A045A045A0492
:103B3E005A045A045A045A045A045A045A045A0487
:103B4E005A045A045904590459045904590459047D
:103B5E005904590459045904590459045904580470
:103B6E005804580458045804580458045804580467
:103B7E00580458045804580457045704570457045B
:103B8E00570457045704570457045704570457044F
:103B9E005604560456045604560456045604560447
:103BAE00560456045604560456045504550455043A
:103BBE00550455045504550455045504550455042F
:103BCE005504550454045404540454045404540425
:103BDE005404540454045404540454045404530418
:103BEE00530453045304530453045304530453040F
:103BFE005304530453045204520452045204520404
:103C0E0052045204520452045204520452045204F6
:103C1E0051045104510451045104510451045104EE
:103C2E0051045104510451045104500450045004E1
:103C3E0050045004500450045004500450045004D6
:103C4E00500450044F044F044F044F044F044F04CC
:103C5E004F044F044F044F044F044F044E044E04C0
:103C6E004E044E044E044E044E044E044E044E04B6
:103C7E004E044E044E044D044D044D044D044D04AB
:103C8E004D044D044D044D044D044D044D044D049E
:103C9E004C044C044C044C044C044C044C044C0496
:103CAE004C044C044C044C044C044B044B044B0489
:103CBE004B044B044B044B044B044B044B044B047E
:103CCE004B044A044A044A044A044A044A044A0475
:103CDE004A044A044A044A044A044A044904490468
:103CEE00490449044904490449044904490449045E
:103CFE004904490449044804480448044804480453
:103D0E004804480448044804480448044804480445
:103D1E00470447044704470447044704470447043D
:103D2E004704470447044704470446044604460430
:103D3E004604460446044604460446044604460425
:103D4E00460445044504450445044504450445041C
:103D5E00450445044504450445044504440444040F
:103D6E004404440444044404440444044404440405
:103D7E0044044404440443044304430443044304FA
:103D8E0043044304430443044304430443044304ED
:103D9E0042044204420442044204420442044204E5
:103DAE0042044204420442044104410441044104D9
:103DBE0041044104410441044104410441044104CD
:103DCE0041044004400440044004400440044004C4
:103DDE004004400440044004400440043F043F04B7
:103DEE003F043F043F043F043F043F043F043F04AD
:103DFE003F043F043E043E043E043E043E043E04A3
:103E0E003E043E043E043E043E043E043E043D0495
:103E1E003D043D043D043D043D043D043D043D048C
:103E2E003D043D043D043D043C043C043C043C0480
:103E3E003C043C043C043C043C043C043C043C0474
:103E4E003C043B043B043B043B043B043B043B046B
:103E5E003B043B043B043B043B043A043A043A045F
:103E6E003A043A043A043A043A043A043A043A0454
:103E7E003A043A043904390439043904390439044A
:103E8E00390439043904390439043904390438043D
:103E9E003804380438043804380438043804380434
:103EAE003804380438043704370437043704370429
:103EBE00370437043704370437043704370437041C
:103ECE003604360436043604360436043604360414
:103EDE003604360436043604360435043504350407
:103EEE0035043504350435043504350435043504FC
:103EFE0035043404340434043404340434043404F3
:103F0E0034043404340434043404340433043304E5
:103F1E0033043304330433043304330433043304DB
:103F2E0033043304330432043204320432043204D0
:103F3E0032043204320432043204320432043104C4
:103F4E0031043104310431043104310431043104BB
:103F5E0031043104310431043004300430043004AF
:103F6E0030043004300430043004300430043004A3
:103F7E0030042F042F042F042F042F042F042F049A
:103F8E002F042F042F042F042F042E042E042E048E
:103F9E002E042E042E042E042E042E042E042E0483
:103FAE002E042E042D042D042D042D042D042D0479
:103FBE002D042D042D042D042D042D042D042C046C
:103FCE002C042C042C042C042C042C042C042C0463
:103FDE002C042C042C042B042B042B042B042B0458
:103FEE002B042B042B042B042B042B042B042B044B
:103FFE002A042A042A042A042A042A042A042A0443
:10400E002A042A042A042A042A0429042904290435
:10401E00290429042904290429042904290429042A
:10402E002904280428042804280428042804280421
:10403E002804280428042804280428042704270414
:10404E00270427042704270427042704270427040A
:10405E002704270426042604260426042604260400
:10406E0026042604260426042604260426042504F3
:10407E0025042504250425042504250425042504EA
:10408E0025042504250424042404240424042404DF
:10409E0024042404240424042404240424042404D2
:1040AE0023042304230423042304230423042304CA
:1040BE0023042304230423042304220422042204BD
:1040CE0022042204220422042204220422042204B2
:1040DE0022042104210421042104210421042104A9
:1040EE00210421042104210421042104200420049C
:1040FE002004200420042004200420042004200492
:10410E00200420041F041F041F041F041F041F0487
:10411E001F041F041F041F041F041F041F041E047A
:10412E001E041E041E041E041E041E041E041E0471
:10413E001E041E041E041D041D041D041D041D0466
:10414E001D041D041D041D041D041D041D041D0459
:10415E001C041C041C041C041C041C041C041C0451
:10416E001C041C041C041C041B041B041B041B0445
:10417E001B041B041B041B041B041B041B041B0439
:10418E001B041A041A041A041A041A041A041A0430
:10419E001A041A041A041A041A0419041904190424
:1041AE001904190419041904190419041904190419
:1041BE00190419041804180418041804180418040F
:1041CE001804180418041804180418041704170403
:1041DE0017041704170417041704170417041704F9
:1041EE0017041704170416041604160416041604EE
:1041FE0016041604160416041604160416041504E2
:10420E0015041504150415041504150415041504D8
:10421E0015041504150415041404140414041404CC
:10422E0014041404140414041404140414041404C0
:10423E0013041304130413041304130413041304B8
:10424E0013041304130413041204120412041204AC
:10425E0012041204120412041204120412041204A0
:10426E001204110411041104110411041104110497
:10427E00110411041104110411041004100410048B
:10428E001004100410041004100410041004100480
:10429E00100410040F040F040F040F040F040F0476
:1042AE000F040F040F040F040F040F040E040E046A
:1042BE000E040E040E040E040E040E040E040E0460
:1042CE000E040E040D040D040D040D040D040D0456
:1042DE000D040D040D040D040D040D040D040C0449
:1042EE000C040C040C040C040C040C040C040C0440
:1042FE000C040C040C040B040B040B040B040B0435
:10430E000B040B040B040B040B040B040B040A0428
:10431E000A040A040A040A040A040A040A040A041F
:10432E000A040A040A040A04090409040904090413
:10433E000904090409040904090409040904090407
:10434E0008040804080408040804080408040804FF
:10435E0008040804080408040704070407040704F3
:10436E0007040704070407040704070407040704E7
:10437E0007040604060406040604060406040604DE
:10438E0006040604060406040604050405040504D2
:10439E0005040504050405040504050405040504C7
:1043AE0005040404040404040404040404040404BE
:1043BE0004040404040404040404030403040304B2
:1043CE0003040304030403040304030403040304A7
:1043DE00030403040204020402040204020402049D
:1043EE000204020402040204020402040104010491
:1043FE000104010401040104010401040104010487
:10440E00010401040004000400040004000400047C
:10441E00000400040004000400040004FF03FF0372
:10442E00FF03FF03FF03FF03FF03FF03FF03FF036E
:10443E00FF03FF03FF03FE03FE03FE03FE03FE0363
:10444E00FE03FE03FE03FE03FE03FE03FE03FD0357
:10445E00FD03FD03FD03FD03FD03FD03FD03FD034E
:10446E00FD031027E80364000A000100001000019C
:10447E00100001009080A0206040501009080A0230
:10448E000604050120032003FFFFFFFFF4010300D4
:10449E00010004000F00FFFFFF00FF00E800000016
:1044AE00000000002A00000054657374696E6700F6
:1044BE002564203A20002564004D4158006D696E38
:1044CE000054455354696E6700416E676C65004831
:1044DE006561643F00417070726F6163680044658E
:1044EE007461636800526967687400474F21210048
:1044FE00506761696E212100735F73746F702121A3
:10450E0000312E505344205445535400322E434410
:10451E005300332E5053442054756E696E67003429
:10452E002E6364732054756E696E6700352E4D6F61
:10453E00746F725F7465737400362E436F73003739
:10454E002E4865616400382E4E6176696761746528
:10455E0000392E506761696E0031302E53706565DB
:10456E00640031312E535F535445500080C001001A
:10457E002D4E414E00494E4600000800280582444B
:10458E00080030058A4402004005924402004405AA
:10459E00944402004805964402004C0598440200DB
:1045AE0063059A44010067059C4401006905A04417
:1045BE0001006A05A2440300A406A44401000F07EB
:1045CE00A84401003607AA440A000400AC440200C5
:1045DE0037077A4501003E077C450000F894EE2728
:1045EE00ECBBF1E0F5BFE5BFE0936C00F8E1F1BD87
:1045FE00E1BD8DE0A2E0BB27ED938A95E9F780E05F
:10460E0090E1A0E0B1E0ED930197E9F7E8E8F5E479
:10461E0085919591009761F0A591B59105901590B2
:10462E00BF01F00105900D920197E1F7FB01F0CF6C
:10463E008BBFEFEFEDBFE0E1EEBFC0E0D5E00C9435
:10464E0085280E94462CD394E7E0DE220E94522C4D
:10465E000E94672F24F4A8E3B5E00E94632C0E9409
:10466E00522C0E946C2FC4F4A0915C05A13081F4F1
:10467E00E0916705F0E00E946C2C0E94752CA093CF
:10468E003805B093390580933A0590933B0504C0E5
:10469E00A8E3B5E00E947A2C0E946C2C0E94612F38
:1046AE004CF0E0E0E0933805E0933905E0933A05ED
:1046BE00E0933B05E0913507E03041F40E94822CF7
:1046CE000E94552F662777270E948D2CE091350783
:1046DE00E03051F0E0915805F091590560915A057E
:1046EE0070915B050E948D2CA0914805B0914905F3
:1046FE0080914A0590914B05E8E00E94A62EEBBDF5
:10470E00E0914805EABD64C00E94462CC394E7E0E0
:10471E00CE220E94962C0E94672F24F4ACE3B5E0C3
:10472E000E94632C0E94962C0E946C2FC4F4A091C0
:10473E005C05A13081F4E0916705F0E00E94A72CA2
:10474E000E94752CA0933C05B0933D0580933E05C9
:10475E0090933F0504C0ACE3B5E00E947A2C0E9412
:10476E00A72C0E94612F4CF0E0E0E0933C05E09313
:10477E003D05E0933E05E0933F05E0913507E030BF
:10478E0041F40E94B02C0E94552F662777270E9475
:10479E00BB2CE0913507E03051F0E0915405F091DB
:1047AE00550560915605709157050E94BB2CA0913E
:1047BE004C05B0914D0580914E0590914F05E8E066
:1047CE000E94A62EE0938700E0914C05E0938600B0
:1047DE00ED2DF0E0E85DFA4FA081EC2DF0E0E05D0C
:1047EE00FA4FE081EA2BE5BBAFE5B5E00E94632C02
:1047FE00E991EFBFF991E991B991A99199918991B7
:10480E0079916991099018950A921A92AA93BA937E
:10481E00EA93FA93EFB7EA935524E6E0E51510F024
:10482E005394FBCF4394A0916905A530A0F0E0917D
:10483E006905F0E03597A4E6B0E00E94BC2EE4597D
:10484E00FA4FDF01EE27A40DBE1FE5B1EC93E09108
:10485E006905EBBB0AC0A0916905A43031F4A42D03
:10486E00B0E0A955B94FE5B1EC93E0916A05E415B6
:10487E0049F4E0916905EF5FE09369054424E1E0B6
:10488E00E0936B05A0916905A83028F0E4E0E09371
:10489E006905E0E0EBBBE0916905E066E7B9369AA1
:1048AE00E991EFBFF991E991B991A9911990099008
:1048BE0018951A930A9310E000E0E0916B05E03032
:1048CE00E1F310E01330C8F505E0E0916A050E172C
:1048DE00C8F40E94C42CEA0FFB1FCF0160817181C6
:1048EE00A4E61A9FF001E459FA4FDF01EE27A00F5C
:1048FE00BE1FEC91F0E0E60FF71FDC01ED93FC9389
:10490E000F5FE3CF0E94CB2CBF010E94C42CAE0FD1
:10491E00BF1F0E94472FDF01E0916A05F0E00E9461
:10492E00E92EDB01EC930E94C42CAE0FBF1FE0E01A
:10493E00F0E0ED93FC931F5FC5CFE0E0E0936B05D5
:10494E0079C01A9310E00E94D02C0D9B1DC0B1DFD0
:10495E000E948F2B0C9B1F5F0E9B1150133008F083
:10496E0010E00E94D62CEEEBF4E4FA93EA93E12FDA
:10497E000E94EE2C0E94FD2C0E94CB2CE0810E9406
:10498E00EE2C0E940C2DE1CF81C01A930A9311E0F8
:10499E0000E00E94122D0D9B4DC08BDF0E948F2BCD
:1049AE000C9B0F5F0E9B0150033008F000E00E943D
:1049BE00182D0E941D2D0E94EE2CE1E00E94272D45
:1049CE000E942C2D0E94342D0E941D2DF0E0EF55DB
:1049DE00F94FE0810E94EE2C0E94FD2CE02FF0E0BA
:1049EE00EC55F94FE0810E94EE2C0E94402DEC55C3
:1049FE00F94FE081AE1740F4A12FB0E0AC55B94F9E
:104A0E000E94CB2CE081EC930E94402DEF55F94F84
:104A1E00E081EA1740F4A12FB0E0AF55B94F0E94E4
:104A2E00CB2CE081EC930E94D02C1F5F133008F04A
:104A3E0010E0B1CF0991199108951A9310E0E09109
:104A4E006B05E030E1F310E0E0916A051E1778F493
:104A5E00E12FF0E0E955F94FE0810E94482DEA0F71
:104A6E00FB1FE0930B07F0930C071F5FEDCFE09158
:104A7E006A050E94482D0E94E92EE0930D07E0E0A2
:104A8E00E0930B07E0930C07E0936B0519910895E3
:104A9E000E94D02C0D9B0EC0D0DF0E94D62C0E94FF
:104AAE004E2DE0910D070E94EE2CE8ECF0E00E94F6
:104ABE00532DF0CF08950E94122D0D9B2AC0BDDFFD
:104ACE000E94572D0E942C2D0E94342D0E945A2D8B
:104ADE00E0910E070E94EE2C0E94FD2CE0910F0734
:104AEE000E94EE2CE0910F07A0910D07AE1720F457
:104AFE00E0910D07E0930F07E0910E07A0910D07CF
:104B0E00EA1720F4E0910D07E0930E070E940C2D9A
:104B1E00D4CF0895EFEFFFEF60E070E00E948D2C90
:104B2E00EFEFFFEF60E070E00E94BB2CE0E0E0935F
:104B3E005F05E0936005E0936105E0936205E0E1B7
:104B4E00E0937D00E7BF08950E945F2DE1E0E093C2
:104B5E005C050E94A72C0E94612F2CF00E946C2CE9
:104B6E000E94612F1CF40E945F2DF3CFE0E0E093D2
:104B7E005C05E0937D00E7BFE5BBE0914005F09159
:104B8E00410560914205709143050E94692DE0E058
:104B9E00E093680508950E948F2B0E94122D0E94AB
:104BAE00182DEFECF4E40E94722DB4DF0D9B04C0BF
:104BBE00E0916805E03009F012C0E1E0EBBB3DDFAB
:104BCE000E948F2B0E94762D18F4E1E0E093680589
:104BDE000E94892D1CF4E1E0E0936805E7CFB4DF75
:104BEE00E0E0EBBB0895E091A4060E94932DE093C4
:104BFE001B07F0931C0760931D0770931E07E0912F
:104C0E00A1060E94932DE0931F07F0932007609357
:104C1E00210770932207E0919E060E94932DE09348
:104C2E002B07F0932C0760932D0770932E07E091BE
:104C3E00A5060E94932DE0932307F093240760931B
:104C4E00250770932607E091A2060E94932DE0930C
:104C5E002707F09328076093290770932A07E0919E
:104C6E009F060E94932DE0932F07F09330076093D9
:104C7E00310770933207A0919F06E091A506AE17FB
:104C8E0030F0A0919F06E091A206EA1720F4E1E031
:104C9E00E09310070DC0E0E0E0931207E0931107D8
:104CAE00E0931007E8ECF0E060E070E00E949B2DCE
:104CBE00E0911007E03011F40C94D126A091360744
:104CCE00BB27E0911F07F09120076091210770919B
:104CDE0022070E94B72E0E94C42EDF01CB01E09165
:104CEE002B07F0912C0760912D0770912E070E94D3
:104CFE00012F0E949B2D0E94A42DA93EE3E0BE072A
:104D0E00E0E08E07E0E09E0730F0E8EEF3E060E0D2
:104D1E0070E00E949B2DE0912F07F091300760917B
:104D2E003107709132070E94A42D0E94AD2DE091A3
:104D3E003607F0E00E94B22DE0931707F0931807A4
:104D4E006093190770931A07E0912307F0912407D7
:104D5E0060912507709126070E94B72D0E94672F3C
:104D6E0030F4E1E0E0931207E0E0E0931107E09108
:104D7E002707F09128076091290770912A070E9452
:104D8E00B72D0E946C2F30F4E1E0E0931107E0E0C4
:104D9E00E0931207E0911207E03019F0EFEFFFEF0A
:104DAE0006C0E0911107E03031F0E1E0F0E0E09371
:104DBE003307F0933407E0913607F0E00E94A42DFC
:104DCE000E94752CA0931307B093140780931507B8
:104DDE009093160708950E940C2D0D9B19C00E94EA
:104DEE00C02DE7EDF4E40E94722D0E94C52D0E94A5
:104DFE005A2D0E94CB2DA0913307B09134070E94FB
:104E0E00B72E0E94C42E0E94D42D0E94122DE5CFE3
:104E1E000895E0913307F0913407D5010E94BC2E1E
:104E2E00DF010E94CB2D882799270E94C42E0E9455
:104E3E00E02D0E94E92DA835E4E0BE07E0E08E07E4
:104E4E00E0E09E072CF0E7E5F4E060E070E00EC0D5
:104E5E000E94E92DA93AEBEFBE07EFEF8E07EFEFB9
:104E6E009E0764F4E9EAFBEF6FEF7FEFE0935005E6
:104E7E00F09351056093520570935305E0915005E0
:104E8E00F09151056091520570915305A9E0B0E083
:104E9E0080E090E00E94E42E0E94E02DE09150050B
:104EAE00F0915105E0935D05F0935E050E94822C12
:104EBE000E94F22DE0915D05F0915E05E05FF84DE8
:104ECE000E94B22D0E94FB2D0E94042E0E940D2ED8
:104EDE0034F0EEEFFFEF60E070E00E94FB2D0E94D9
:104EEE00042E0E94152E34F4E1E0F0E060E070E054
:104EFE000E94FB2D0E94B02C0E94F22DE0915D05C8
:104F0E00F0915E050E949A2EE05FF84D0E94B22D40
:104F1E000E941D2E0E94262E0E940D2E34F0EEEFC2
:104F2E00FFEF60E070E00E941D2E0E94262E0E9470
:104F3E00152E34F4E1E0F0E060E070E00E941D2EEA
:104F4E0008950E940C2D0D9B30C00E94C02DEDEDDA
:104F5E00F4E40E94722DE0911107E03031F00E94CE
:104F6E00C52DE3EEF4E40E94722DE0911207E030BD
:104F7E0031F00E94C52DECEEF4E40E94722DE0910A
:104F8E001107E03021F4E0911207E03009F006C07D
:104F9E000E94C52DE3EFF4E40E94722D0E94122DA3
:104FAE00E0E0E0937D00E7BFCECF08950E94572D3D
:104FBE00E9EFF4E40E94722D0E94122DE1E0E093DD
:104FCE003507A8DD0D9B04C0E0916805E03009F0BF
:104FDE0011C06FDC32DD07DE1CDF0E94762D18F467
:104FEE00E1E0E09368050E94892D1CF4E1E0E09376
:104FFE006805E8CFA9DDE0E0E093350708950E944B
:10500E000C2D0D9B1CC00C9903C0F50135965F014C
:10501E000E9903C0F50135975F010E94572DEEEFF3
:10502E00F4E40E94722D0E94C52D0E945A2DF501A6
:10503E00662777270E94D42D0E940C2DE2CF08956B
:10504E000E940C2D0D9B2FC00C9908C00E942F2E74
:10505E00EB5FFF4F6F4F7F4F0E94692D0E9908C077
:10506E000E942F2EE550F040604070400E94692D46
:10507E000E94572DEEEFF4E40E94722D0E94C52D72
:10508E000E945A2D0E942F2E0E94D42D0E940C2D6C
:10509E000E942F2EE0934005F09341056093420548
:1050AE0070934305CFCF08950E940C2D0D9B25C004
:1050BE000C9908C00E94382EE65FFF4F6F4F7F4F4E
:1050CE000E94412E0E9908C00E94382EEA50F040E0
:1050DE00604070400E94412E0E94572DE6E0F5E49C
:1050EE000E94722D0E94C52D0E945A2D0E94382EAC
:1050FE000E94D42D0E940C2DD9CF089510E00AE005
:10510E00E0E0EBBBEFEFEABBE0E0E8BBE7BBE5BB03
:10511E00EFEFE4BBE0E0E2BBEFEFE1BBE0E0E3B9D1
:10512E00EFE8E2B9E0E0E0936200E0936100E09323
:10513E006500E0936400EFBDE9E0EEBDE0E0EDBD9B
:10514E00ECBDE7BDE6BDEBBDEABDE9BDE8BDE09354
:10515E007900E0937800E0938B00E9E0E0938A0019
:10516E00E0E0E0938900E0938800E0938100E09313
:10517E008000E0938700E0938600E0938500E09343
:10518E008400E0938300E0938200E5E2E7B9EFEC60
:10519E00E6B9E0E0E0BDE8E0EA930E94FC2B7894EB
:1051AE000C9B1F5F0E9B1150011708F410E010307E
:1051BE0011F40E9B102FE12FF0E0309749F40E946E
:1051CE00572DEFE0F5E40E94722D0D9BBADB9AC0CD
:1051DE00E130A0E0FA0749F40E94572DEAE1F5E428
:1051EE000E94722D0D9B54DC8DC0E230A0E0FA07B8
:1051FE0049F40E94572DE0E2F5E40E94722D0D9BBA
:10520E00C4DB80C0E330A0E0FA0749F40E94572DBA
:10521E00EDE2F5E40E94722D0D9B4DDC73C0E4307F
:10522E00A0E0FA0749F40E94572DEAE3F5E40E9444
:10523E00722D0D9BB0DC66C0E530A0E0FA0749F494
:10524E000E94572DE7E4F5E40E94722D0D9BC3DDFD
:10525E0059C0E630A0E0FA0749F40E94572DEDE45C
:10526E00F5E40E94722D0D9B6CDE4CC0E730A0E081
:10527E00FA0749F40E94572DE4E5F5E40E94722DD9
:10528E000D9B94DE3FC0E830A0E0FA0791F40E9437
:10529E00572DEFE5F5E40E94722D0E94C52D0E9458
:1052AE005A2DF501662777270E94D42D0D9BA7DE78
:1052BE0029C0E930A0E0FA0789F40E94572DE7E6ED
:1052CE00F5E40E94722D0E94C52D0E945A2D0E9457
:1052DE002F2E0E94D42D0D9BB3DE14C0EA30A0E019
:1052EE00FA07A1F40E94572DE0E7F5E40E94722D13
:1052FE000E94C52D0E945A2D0E94382E0E94D42D38
:10530E000D9BD2DEE2E3F0E00E94532DEAEFF0E0D7
:10531E000E94532D45CFFFCF1A930A93AA81BB81CA
:10532E0012960E94472F309759F1AA81BB8114968D
:10533E000E94472F8F01309761F00230E0E01E0788
:10534E00F0F0F80131978F01AA81BB811496ED938D
:10535E00FC93AA81BB811296ED91FD913196FE933D
:10536E00EE933197AC81A083AA81BB810E94472F17
:10537E00FF232AF0ED91FD913196FE93EE9306C038
:10538E00AA81BB81EFEFFFEFED93FC9319810881AA
:10539E002596089526970E94712F10E0AC85BD8545
:1053AE00E0E0F0E0ED93FC93EA89FB893196EA8B1D
:1053BE00FB8B3197E4912E2FE03011F40C94FE2AE2
:1053CE00E12FE03039F4253211F411E002C00E94D1
:1053DE004A2E0CC1E130A9F4253219F40E944A2E4E
:1053EE0004C112E040E000E02D3211F401E0FEC0F5
:1053FE002B3211F44BE2FAC0203211F440E2F6C027
:10540E0002C0E23039F450E013E0203311F40068AA
:10541E00EDC004C0E33011F00C94FD2A203310F0DF
:10542E002A3308F007C0AAE05A9F502DE22FE0530E
:10543E005E0FDCC0E22FE33649F40E94532EE8895A
:10544E00F989A481AA930E94592ECFC0E33741F463
:10545E000E94532E0E94612E0E94312C1E2F0AC0D4
:10546E00E03761F40E94532E0E94612E0E943B2C65
:10547E001E2F086002600F7730E035C0E43611F061
:10548E00E93611F4046002C0E53731F4E0E7F4E4E4
:10549E00EE83FF8315E00DC0E83511F4086004C0FB
:1054AE00E83711F00C94FC2AEAE7F4E4EE83FF836C
:1054BE0014E002FF14C00E94532E0E946B2EAB8587
:1054CE00AA233AF4EA85FB850E949A2EEA87FB8787
:1054DE004DE2403011F01F5F01C00B7F04C00E94EF
:1054EE00532E0E946B2E00FD11C0151778F407FF86
:1054FE0008C002FF04C00B7F242F115001C020E30F
:10550E0001C020E20E944A2E5150EFCF312F01FFF1
:10551E0017C03030A1F003FF06C0EE81FF81259148
:10552E00EE83FF8305C0AE81BF812D91AE83BF8315
:10553E000E944A2E503009F051503150EACF4BC0E4
:10554E0020E3EE81FF810E94552FE887F987EE81D7
:10555E00FF813296EE83FF83E885F985AA85BB85A8
:10556E00AE17BF0750F02F5FA885B985EA85FB857A
:10557E00EA1BFB0BEA87FB87EFCF2A3328F003FFEA
:10558E0002C0295F01C0295D04FD1AC0213320F439
:10559E00A885B985119709F409C0531710F000FFBB
:1055AE0001C013C020E207FF0BC020E3006102FF21
:1055BE0007C00B7F4A930E94592E503009F051506C
:1055CE000E944A2E503009F051503150A885B985AD
:1055DE00129708F0B5CF00FF08C0503031F051508F
:1055EE00E0E2EA930E94592EF8CF10E0DDCEAC85B2
:1055FE00BD850E94472F0E94782F64960895FF92D2
:10560E00F82E26970E94732F0E94732E309719F44E
:10561E00EFEFFFEF25C0DE0116960E94912E8D0151
:10562E000E94732EEE83FF83E0E0E887E987DE01B8
:10563E001A960E94912E0E94472FFA93EA931A937C
:10564E000A93E3E9F9E2FA93EA93FE013A96FA93A2
:10565E00EA93A0DE9F01AE81BF81E0E0EC93F901F9
:10566E000E947A2F2A96FF900895FFE0FA95F1F79F
:10567E000895A1B3AF70A1BB919A9098F6DF929A5C
:10568E00F4DFA0B39298F1DF929AEFDF9298A7FD24
:10569E00F5CF0895A07FAB2BA2BB929A0E943C2B14
:1056AE0092980E943C2B08959198A1B3A76FA1BB2D
:1056BE00B2B3BF70A881EEDFA881A295EBDF919AFD
:1056CE000C942F2C929A0E943C2BE0B392980E943D
:1056DE003C2BE07F08950E943C2BF4DFAE2FF2DFCF
:1056EE009198E295EA2B08950E94402BE881F0E014
:1056FE00E95CF84FE081A981EA0FEA930E945B2BE7
:10570E00E981E0933B07E881E0933C0722960895F8
:10571E000E94402BE2E0EA930E945B2B0E94402BFA
:10572E00ECE0EA930E945B2B0E94402BE1E0EA93AF
:10573E000E945B2BE0E0E0933C07E0933B0708956B
:10574E00EF93FF93A8816894AA3039F0E894E09122
:10575E003D07A0913B07AE1760F0E0913C07EF5F6D
:10576E00E0933C07E0E0EA93E0913C07EA93BCDF6C
:10577E0056F0E0913B07EF5FE0933B077ADF909A9C
:10578E00A881AA9391DFFF91EF910C942F2C1A937D
:10579E00A981BA81ED91A983BA831E2FE03019F049
:1057AE001A93CEDFF5CF0EC01A93E981FA813196A6
:1057BE00E983FA833197E4911E2FE03019F01A93A2
:1057CE00BFDFF3CF188123960895AA27BB27119721
:1057DE00F1F708959198A1B3A76FA1BBB2B3BF70B3
:1057EE00A8810E94512B919A33C092989098E8818B
:1057FE00E0933D07E058E0933907E881E054E093E9
:10580E003A070E947A2E0E947A2E0E947A2EDDDFAF
:10581E00E0E2EA93DFDFD9DFE8E20E94802EE4E0E7
:10582E000E94802EE5E80E94802EA1B3AF70A1BB2E
:10583E00919A0E94722BE53011F0E0E009C00E94AF
:10584E00402BE6E0EA930E945B2B0E948F2BE1E057
:10585E0021960895A991B991EE27FF276D916623A0
:10586E0011F03196FBCF0895AA27BB27E991F99144
:10587E000590002011F01196FBCFFD0108950A92BC
:10588E006A937A938A939A93AA93BA93EA93FA9322
:10589E00EFB7EA930895E0913805F09139056091DC
:1058AE003A0570913B05A0914405B0914505809154
:1058BE0046059091470508950E944B2FEF5FFF4FCD
:1058CE006F4F7F4F0E94502F0895A0913805B091D1
:1058DE00390580913A0590913B0508950E94B22EAC
:1058EE000E94952E08950E944B2F31976040704074
:1058FE000E94502F0895E0913805F0913905ACE8DB
:10590E00B0E0EE0FFF1FEA0FFB1F0895E09348056E
:10591E00F093490560934A0570934B050895E09105
:10592E003C05F0913D0560913E0570913F05A091BB
:10593E004405B0914505809146059091470508951F
:10594E00A0913C05B0913D0580913E0590913F059B
:10595E000895E0913C05F0913D05ACE8B0E0EE0F06
:10596E00FF1FEA0FFB1F0895E0934C05F0934D05C2
:10597E0060934E0570934F050895E12FA8E9B6E0A8
:10598E00F0E0EE0FFF1F0895E12FF0E0E256F94F21
:10599E000895ECE2F1E0FA93EA930C94852E0E94BE
:1059AE008F2BE0E0EA93EA930E947B2BE6EBF4E484
:1059BE00FA93EA930E94DB2BE0E0EA93E1E0EA93AC
:1059CE000E947B2BE0E0F5E0FA93EA930895FF271F
:1059DE00662777270E945C2F84E00E94062B28966C
:1059EE00E0E0F5E0FA93EA930C94CE2BE5E0EA932F
:1059FE00E1E0EA930E947B2BE0E0F5E0FA93EA9374
:105A0E00E4ECF4E4FA93EA930895E4E6F0E0FA9312
:105A1E00EA930C94852EE4EFF1E0FA93EA930C945A
:105A2E00852EE0E0EA93EA930C947B2BE0E0F5E020
:105A3E00FA93EA93E4ECF4E4FA93EA93E02F0895F0
:105A4E00EA93E0E0EA930C947B2BE7ECF4E4FA9310
:105A5E00EA930E94DB2BE5E0F3CFEBECF4E4FA9350
:105A6E00EA930E94DB2BE0E0EA93E1E0EA930C94E8
:105A7E007B2BE12FF0E00F01E256F94FA081F001F0
:105A8E000895F0E0A0910B07B0910C070895E4EC97
:105A9E00F4E4FA93EA930895FA93EA930C94852E1C
:105AAE000E948F2BBECFE0E0F5E0FA93EA93EFCFA2
:105ABE00E0E0E0934405E0934505E0934605E0936E
:105ACE0047050895E0934405F09345056093460518
